{
	"_format": "hh-sol-artifact-1",
	"contractName": "GovernanceA",
	"sourceName": "contracts/GovernanceA.sol",
	"abi": [
		{
			"inputs": [
				{
					"internalType": "contract IVotes",
					"name": "_token",
					"type": "address"
				}
			],
			"stateMutability": "nonpayable",
			"type": "constructor"
		},
		{
			"anonymous": false,
			"inputs": [
				{
					"indexed": false,
					"internalType": "uint256",
					"name": "proposalId",
					"type": "uint256"
				}
			],
			"name": "ProposalCanceled",
			"type": "event"
		},
		{
			"anonymous": false,
			"inputs": [
				{
					"indexed": false,
					"internalType": "uint256",
					"name": "proposalId",
					"type": "uint256"
				},
				{
					"indexed": false,
					"internalType": "address",
					"name": "proposer",
					"type": "address"
				},
				{
					"indexed": false,
					"internalType": "address[]",
					"name": "targets",
					"type": "address[]"
				},
				{
					"indexed": false,
					"internalType": "uint256[]",
					"name": "values",
					"type": "uint256[]"
				},
				{
					"indexed": false,
					"internalType": "string[]",
					"name": "signatures",
					"type": "string[]"
				},
				{
					"indexed": false,
					"internalType": "bytes[]",
					"name": "calldatas",
					"type": "bytes[]"
				},
				{
					"indexed": false,
					"internalType": "uint256",
					"name": "startBlock",
					"type": "uint256"
				},
				{
					"indexed": false,
					"internalType": "uint256",
					"name": "endBlock",
					"type": "uint256"
				},
				{
					"indexed": false,
					"internalType": "string",
					"name": "description",
					"type": "string"
				}
			],
			"name": "ProposalCreated",
			"type": "event"
		},
		{
			"anonymous": false,
			"inputs": [
				{
					"indexed": false,
					"internalType": "uint256",
					"name": "proposalId",
					"type": "uint256"
				}
			],
			"name": "ProposalExecuted",
			"type": "event"
		},
		{
			"anonymous": false,
			"inputs": [
				{
					"indexed": true,
					"internalType": "address",
					"name": "voter",
					"type": "address"
				},
				{
					"indexed": false,
					"internalType": "uint256",
					"name": "proposalId",
					"type": "uint256"
				},
				{
					"indexed": false,
					"internalType": "uint8",
					"name": "support",
					"type": "uint8"
				},
				{
					"indexed": false,
					"internalType": "uint256",
					"name": "weight",
					"type": "uint256"
				},
				{
					"indexed": false,
					"internalType": "string",
					"name": "reason",
					"type": "string"
				}
			],
			"name": "VoteCast",
			"type": "event"
		},
		{
			"inputs": [],
			"name": "BALLOT_TYPEHASH",
			"outputs": [
				{
					"internalType": "bytes32",
					"name": "",
					"type": "bytes32"
				}
			],
			"stateMutability": "view",
			"type": "function"
		},
		{
			"inputs": [],
			"name": "COUNTING_MODE",
			"outputs": [
				{
					"internalType": "string",
					"name": "",
					"type": "string"
				}
			],
			"stateMutability": "pure",
			"type": "function"
		},
		{
			"inputs": [
				{
					"internalType": "uint256",
					"name": "proposalId",
					"type": "uint256"
				},
				{
					"internalType": "uint8",
					"name": "support",
					"type": "uint8"
				}
			],
			"name": "castVote",
			"outputs": [
				{
					"internalType": "uint256",
					"name": "",
					"type": "uint256"
				}
			],
			"stateMutability": "nonpayable",
			"type": "function"
		},
		{
			"inputs": [
				{
					"internalType": "uint256",
					"name": "proposalId",
					"type": "uint256"
				},
				{
					"internalType": "uint8",
					"name": "support",
					"type": "uint8"
				},
				{
					"internalType": "uint8",
					"name": "v",
					"type": "uint8"
				},
				{
					"internalType": "bytes32",
					"name": "r",
					"type": "bytes32"
				},
				{
					"internalType": "bytes32",
					"name": "s",
					"type": "bytes32"
				}
			],
			"name": "castVoteBySig",
			"outputs": [
				{
					"internalType": "uint256",
					"name": "",
					"type": "uint256"
				}
			],
			"stateMutability": "nonpayable",
			"type": "function"
		},
		{
			"inputs": [
				{
					"internalType": "uint256",
					"name": "proposalId",
					"type": "uint256"
				},
				{
					"internalType": "uint8",
					"name": "support",
					"type": "uint8"
				},
				{
					"internalType": "string",
					"name": "reason",
					"type": "string"
				}
			],
			"name": "castVoteWithReason",
			"outputs": [
				{
					"internalType": "uint256",
					"name": "",
					"type": "uint256"
				}
			],
			"stateMutability": "nonpayable",
			"type": "function"
		},
		{
			"inputs": [
				{
					"internalType": "address[]",
					"name": "targets",
					"type": "address[]"
				},
				{
					"internalType": "uint256[]",
					"name": "values",
					"type": "uint256[]"
				},
				{
					"internalType": "bytes[]",
					"name": "calldatas",
					"type": "bytes[]"
				},
				{
					"internalType": "bytes32",
					"name": "descriptionHash",
					"type": "bytes32"
				}
			],
			"name": "execute",
			"outputs": [
				{
					"internalType": "uint256",
					"name": "",
					"type": "uint256"
				}
			],
			"stateMutability": "payable",
			"type": "function"
		},
		{
			"inputs": [
				{
					"internalType": "address",
					"name": "account",
					"type": "address"
				},
				{
					"internalType": "uint256",
					"name": "blockNumber",
					"type": "uint256"
				}
			],
			"name": "getVotes",
			"outputs": [
				{
					"internalType": "uint256",
					"name": "",
					"type": "uint256"
				}
			],
			"stateMutability": "view",
			"type": "function"
		},
		{
			"inputs": [
				{
					"internalType": "uint256",
					"name": "proposalId",
					"type": "uint256"
				},
				{
					"internalType": "address",
					"name": "account",
					"type": "address"
				}
			],
			"name": "hasVoted",
			"outputs": [
				{
					"internalType": "bool",
					"name": "",
					"type": "bool"
				}
			],
			"stateMutability": "view",
			"type": "function"
		},
		{
			"inputs": [
				{
					"internalType": "address[]",
					"name": "targets",
					"type": "address[]"
				},
				{
					"internalType": "uint256[]",
					"name": "values",
					"type": "uint256[]"
				},
				{
					"internalType": "bytes[]",
					"name": "calldatas",
					"type": "bytes[]"
				},
				{
					"internalType": "bytes32",
					"name": "descriptionHash",
					"type": "bytes32"
				}
			],
			"name": "hashProposal",
			"outputs": [
				{
					"internalType": "uint256",
					"name": "",
					"type": "uint256"
				}
			],
			"stateMutability": "pure",
			"type": "function"
		},
		{
			"inputs": [],
			"name": "name",
			"outputs": [
				{
					"internalType": "string",
					"name": "",
					"type": "string"
				}
			],
			"stateMutability": "view",
			"type": "function"
		},
		{
			"inputs": [
				{
					"internalType": "uint256",
					"name": "proposalId",
					"type": "uint256"
				}
			],
			"name": "proposalDeadline",
			"outputs": [
				{
					"internalType": "uint256",
					"name": "",
					"type": "uint256"
				}
			],
			"stateMutability": "view",
			"type": "function"
		},
		{
			"inputs": [
				{
					"internalType": "uint256",
					"name": "proposalId",
					"type": "uint256"
				}
			],
			"name": "proposalSnapshot",
			"outputs": [
				{
					"internalType": "uint256",
					"name": "",
					"type": "uint256"
				}
			],
			"stateMutability": "view",
			"type": "function"
		},
		{
			"inputs": [],
			"name": "proposalThreshold",
			"outputs": [
				{
					"internalType": "uint256",
					"name": "",
					"type": "uint256"
				}
			],
			"stateMutability": "pure",
			"type": "function"
		},
		{
			"inputs": [
				{
					"internalType": "uint256",
					"name": "proposalId",
					"type": "uint256"
				}
			],
			"name": "proposalVotes",
			"outputs": [
				{
					"internalType": "uint256",
					"name": "againstVotes",
					"type": "uint256"
				},
				{
					"internalType": "uint256",
					"name": "forVotes",
					"type": "uint256"
				},
				{
					"internalType": "uint256",
					"name": "abstainVotes",
					"type": "uint256"
				}
			],
			"stateMutability": "view",
			"type": "function"
		},
		{
			"inputs": [
				{
					"internalType": "address[]",
					"name": "targets",
					"type": "address[]"
				},
				{
					"internalType": "uint256[]",
					"name": "values",
					"type": "uint256[]"
				},
				{
					"internalType": "bytes[]",
					"name": "calldatas",
					"type": "bytes[]"
				},
				{
					"internalType": "string",
					"name": "description",
					"type": "string"
				}
			],
			"name": "propose",
			"outputs": [
				{
					"internalType": "uint256",
					"name": "",
					"type": "uint256"
				}
			],
			"stateMutability": "nonpayable",
			"type": "function"
		},
		{
			"inputs": [
				{
					"internalType": "uint256",
					"name": "blockNumber",
					"type": "uint256"
				}
			],
			"name": "quorum",
			"outputs": [
				{
					"internalType": "uint256",
					"name": "",
					"type": "uint256"
				}
			],
			"stateMutability": "pure",
			"type": "function"
		},
		{
			"inputs": [
				{
					"internalType": "address",
					"name": "target",
					"type": "address"
				},
				{
					"internalType": "uint256",
					"name": "value",
					"type": "uint256"
				},
				{
					"internalType": "bytes",
					"name": "data",
					"type": "bytes"
				}
			],
			"name": "relay",
			"outputs": [],
			"stateMutability": "nonpayable",
			"type": "function"
		},
		{
			"inputs": [
				{
					"internalType": "uint256",
					"name": "proposalId",
					"type": "uint256"
				}
			],
			"name": "state",
			"outputs": [
				{
					"internalType": "enum IGovernor.ProposalState",
					"name": "",
					"type": "uint8"
				}
			],
			"stateMutability": "view",
			"type": "function"
		},
		{
			"inputs": [
				{
					"internalType": "bytes4",
					"name": "interfaceId",
					"type": "bytes4"
				}
			],
			"name": "supportsInterface",
			"outputs": [
				{
					"internalType": "bool",
					"name": "",
					"type": "bool"
				}
			],
			"stateMutability": "view",
			"type": "function"
		},
		{
			"inputs": [],
			"name": "token",
			"outputs": [
				{
					"internalType": "contract IVotes",
					"name": "",
					"type": "address"
				}
			],
			"stateMutability": "view",
			"type": "function"
		},
		{
			"inputs": [],
			"name": "version",
			"outputs": [
				{
					"internalType": "string",
					"name": "",
					"type": "string"
				}
			],
			"stateMutability": "view",
			"type": "function"
		},
		{
			"inputs": [],
			"name": "votingDelay",
			"outputs": [
				{
					"internalType": "uint256",
					"name": "",
					"type": "uint256"
				}
			],
			"stateMutability": "pure",
			"type": "function"
		},
		{
			"inputs": [],
			"name": "votingPeriod",
			"outputs": [
				{
					"internalType": "uint256",
					"name": "",
					"type": "uint256"
				}
			],
			"stateMutability": "pure",
			"type": "function"
		},
		{
			"stateMutability": "payable",
			"type": "receive"
		}
	],
	"bytecode": "0x6101606040523480156200001257600080fd5b50604051620026b1380380620026b18339810160408190526200003591620001e0565b604080518082019091526009815268476f7665726e6f724160b81b6020820152819080620000776040805180820190915260018152603160f81b602082015290565b815160208084019190912082518383012060e08290526101008190524660a0818152604080517f8b73c3c69bb8fe3d512ecc4cf759cc79239f7b179b0ffacaa9a75d522b39400f81880181905281830187905260608201869052608082019490945230818401528151808203909301835260c00190528051940193909320919290916080523060601b60c05261012052505082516200012092506000915060208401906200013a565b505060601b6001600160601b03191661014052506200024f565b828054620001489062000212565b90600052602060002090601f0160209004810192826200016c5760008555620001b7565b82601f106200018757805160ff1916838001178555620001b7565b82800160010185558215620001b7579182015b82811115620001b75782518255916020019190600101906200019a565b50620001c5929150620001c9565b5090565b5b80821115620001c55760008155600101620001ca565b600060208284031215620001f357600080fd5b81516001600160a01b03811681146200020b57600080fd5b9392505050565b600181811c908216806200022757607f821691505b602082108114156200024957634e487b7160e01b600052602260045260246000fd5b50919050565b60805160a05160c05160601c60e05161010051610120516101405160601c6123fa620002b760003960008181610526015261126d015260006113ac015260006113fb015260006113d60152600061132f015260006113590152600061138301526123fa6000f3fe6080604052600436106101845760003560e01c806356781388116100d6578063c59057e41161007f578063eb9019d411610059578063eb9019d4146104d3578063f8ce560a146104f3578063fc0c546a1461051457600080fd5b8063c59057e414610439578063dd4e2ba514610459578063deaaa7cc1461049f57600080fd5b8063b58131b0116100b0578063b58131b0146103e5578063c01f9e37146103f9578063c28bc2fa1461041957600080fd5b806356781388146103855780637b3c71d3146103a55780637d5e81e2146103c557600080fd5b80633932abb1116101385780634385963211610112578063438596321461029b578063544ffc9c146102e557806354fd4d501461033f57600080fd5b80633932abb11461023a5780633bccf4fd1461024e5780633e4f49e61461026e57600080fd5b806306fdde031161016957806306fdde03146101e55780632656227d146102075780632d63f6931461021a57600080fd5b806301ffc9a71461019257806302a251a3146101c757600080fd5b3661018d57005b005b600080fd5b34801561019e57600080fd5b506101b26101ad366004611de2565b610560565b60405190151581526020015b60405180910390f35b3480156101d357600080fd5b5060045b6040519081526020016101be565b3480156101f157600080fd5b506101fa6105f9565b6040516101be91906120b9565b6101d7610215366004611c91565b61068b565b34801561022657600080fd5b506101d7610235366004611e24565b6107b9565b34801561024657600080fd5b5060006101d7565b34801561025a57600080fd5b506101d7610269366004611ee7565b6107f2565b34801561027a57600080fd5b5061028e610289366004611e24565b610886565b6040516101be9190612091565b3480156102a757600080fd5b506101b26102b6366004611e56565b60008281526002602090815260408083206001600160a01b038516845260030190915290205460ff1692915050565b3480156102f157600080fd5b50610324610300366004611e24565b60008181526002602081905260409091208054600182015491909201549193909250565b604080519384526020840192909252908201526060016101be565b34801561034b57600080fd5b5060408051808201909152600181527f310000000000000000000000000000000000000000000000000000000000000060208201526101fa565b34801561039157600080fd5b506101d76103a0366004611e82565b610992565b3480156103b157600080fd5b506101d76103c0366004611ea5565b6109bb565b3480156103d157600080fd5b506101d76103e0366004611d21565b610a0d565b3480156103f157600080fd5b5060016101d7565b34801561040557600080fd5b506101d7610414366004611e24565b610d88565b34801561042557600080fd5b5061018b610434366004611c37565b610db8565b34801561044557600080fd5b506101d7610454366004611c91565b610e50565b34801561046557600080fd5b506040805180820190915260208082527f737570706f72743d627261766f2671756f72756d3d666f722c6162737461696e908201526101fa565b3480156104ab57600080fd5b506101d77f150214d74d59b7d1e90c73fc22ef3d991dd0a76b046543d4d80ab92d2a50328f81565b3480156104df57600080fd5b506101d76104ee366004611c0d565b610e8a565b3480156104ff57600080fd5b506101d761050e366004611e24565b50600190565b34801561052057600080fd5b506105487f000000000000000000000000000000000000000000000000000000000000000081565b6040516001600160a01b0390911681526020016101be565b60007fffffffff0000000000000000000000000000000000000000000000000000000082167fbf26d8970000000000000000000000000000000000000000000000000000000014806105f357507f01ffc9a7000000000000000000000000000000000000000000000000000000007fffffffff000000000000000000000000000000000000000000000000000000008316145b92915050565b606060008054610608906122c6565b80601f0160208091040260200160405190810160405280929190818152602001828054610634906122c6565b80156106815780601f1061065657610100808354040283529160200191610681565b820191906000526020600020905b81548152906001019060200180831161066457829003601f168201915b5050505050905090565b60008061069a86868686610e50565b905060006106a782610886565b905060048160078111156106bd576106bd612332565b14806106da575060058160078111156106d8576106d8612332565b145b6107515760405162461bcd60e51b815260206004820152602160248201527f476f7665726e6f723a2070726f706f73616c206e6f742073756363657373667560448201527f6c0000000000000000000000000000000000000000000000000000000000000060648201526084015b60405180910390fd5b600082815260016020818152604092839020600201805460ff191690921790915590518381527f712ae1383f79ac853f8d882153778e0260ef8f03b504e2866e0593e04d2b291f910160405180910390a16107af8288888888610e9d565b5095945050505050565b600081815260016020908152604080832081519283019091525467ffffffffffffffff16908190525b67ffffffffffffffff1692915050565b604080517f150214d74d59b7d1e90c73fc22ef3d991dd0a76b046543d4d80ab92d2a50328f602082015290810186905260ff85166060820152600090819061085e906108569060800160405160208183030381529060405280519060200120610f9c565b868686611005565b905061087b87828860405180602001604052806000815250611023565b979650505050505050565b6000818152600160205260408120600281015460ff16156108aa5750600792915050565b6002810154610100900460ff16156108c55750600292915050565b60006108d0846107b9565b90508061091f5760405162461bcd60e51b815260206004820152601d60248201527f476f7665726e6f723a20756e6b6e6f776e2070726f706f73616c2069640000006044820152606401610748565b438110610930575060009392505050565b600061093b85610d88565b905043811061094f57506001949350505050565b61095885611149565b8015610977575060008581526002602052604090208054600190910154115b1561098757506004949350505050565b506003949350505050565b6000803390506109b384828560405180602001604052806000815250611023565b949350505050565b600080339050610a0386828787878080601f01602080910402602001604051908101604052809392919081815260200183838082843760009201919091525061102392505050565b9695505050505050565b60006001610a20336104ee60014361227f565b1015610aba5760405162461bcd60e51b815260206004820152604360248201527f476f7665726e6f72436f6d7061746962696c697479427261766f3a2070726f7060448201527f6f73657220766f7465732062656c6f772070726f706f73616c2074687265736860648201527f6f6c640000000000000000000000000000000000000000000000000000000000608482015260a401610748565b6000610acf8686868680519060200120610e50565b90508451865114610b2c5760405162461bcd60e51b815260206004820152602160248201527f476f7665726e6f723a20696e76616c69642070726f706f73616c206c656e67746044820152600d60fb1b6064820152608401610748565b8351865114610b875760405162461bcd60e51b815260206004820152602160248201527f476f7665726e6f723a20696e76616c69642070726f706f73616c206c656e67746044820152600d60fb1b6064820152608401610748565b6000865111610bd85760405162461bcd60e51b815260206004820152601860248201527f476f7665726e6f723a20656d7074792070726f706f73616c00000000000000006044820152606401610748565b6000818152600160209081526040918290208251918201909252815467ffffffffffffffff169081905215610c755760405162461bcd60e51b815260206004820152602160248201527f476f7665726e6f723a2070726f706f73616c20616c726561647920657869737460448201527f73000000000000000000000000000000000000000000000000000000000000006064820152608401610748565b6000610c8081611181565b610c8943611181565b610c939190612253565b90506000610ca16004611181565b610cab9083612253565b835467ffffffffffffffff191667ffffffffffffffff8416178455905060018301805467ffffffffffffffff191667ffffffffffffffff83161790557f7d84a6263ae0d98d3329bd7b46bb4e8d6f98cd35a7adb45c274c8b7fd5ebd5e084338b8b8d5167ffffffffffffffff811115610d2657610d2661235e565b604051908082528060200260200182016040528015610d5957816020015b6060815260200190600190039081610d445790505b508c88888e604051610d73999897969594939291906120cc565b60405180910390a15091979650505050505050565b600081815260016020818152604080842081519283019091529091015467ffffffffffffffff16908190526107e2565b333014610e075760405162461bcd60e51b815260206004820152601860248201527f476f7665726e6f723a206f6e6c79476f7665726e616e636500000000000000006044820152606401610748565b610e498483838080601f016020809104026020016040519081016040528093929190818152602001838380828437600092019190915250889250611205915050565b5050505050565b600084848484604051602001610e699493929190612046565b60408051601f19818403018152919052805160209091012095945050505050565b6000610e96838361122b565b9392505050565b600060405180606001604052806027815260200161237560279139905060005b8551811015610f9357600080878381518110610edb57610edb612348565b60200260200101516001600160a01b0316878481518110610efe57610efe612348565b6020026020010151878581518110610f1857610f18612348565b6020026020010151604051610f2d919061202a565b60006040518083038185875af1925050503d8060008114610f6a576040519150601f19603f3d011682016040523d82523d6000602084013e610f6f565b606091505b5091509150610f7f8282866112e9565b50505080610f8c90612301565b9050610ebd565b50505050505050565b60006105f3610fa9611322565b836040517f19010000000000000000000000000000000000000000000000000000000000006020820152602281018390526042810182905260009060620160405160208183030381529060405280519060200120905092915050565b600080600061101687878787611449565b915091506107af81611536565b600084815260016020819052604082209061103d87610886565b600781111561104e5761104e612332565b146110c15760405162461bcd60e51b815260206004820152602360248201527f476f7665726e6f723a20766f7465206e6f742063757272656e746c792061637460448201527f69766500000000000000000000000000000000000000000000000000000000006064820152608401610748565b6040805160208101909152815467ffffffffffffffff16908190526000906110ea908790610e8a565b90506110f8878787846116f4565b856001600160a01b03167fb8e138887d0aa13bab447e82de9d5c1777041ecd21ca36ba824ff1e6c07ddda48887848860405161113794939291906121be565b60405180910390a29695505050505050565b6000818152600260208190526040822090810154600182015461116c919061223b565b61117861050e856107b9565b11159392505050565b600067ffffffffffffffff8211156112015760405162461bcd60e51b815260206004820152602660248201527f53616665436173743a2076616c756520646f65736e27742066697420696e203660448201527f34206269747300000000000000000000000000000000000000000000000000006064820152608401610748565b5090565b60606109b384848460405180606001604052806029815260200161239c60299139611891565b6040517f3a46b1a80000000000000000000000000000000000000000000000000000000081526001600160a01b038381166004830152602482018390526000917f000000000000000000000000000000000000000000000000000000000000000090911690633a46b1a89060440160206040518083038186803b1580156112b157600080fd5b505afa1580156112c5573d6000803e3d6000fd5b505050506040513d601f19601f82011682018060405250810190610e969190611e3d565b606083156112f8575081610e96565b8251156113085782518084602001fd5b8160405162461bcd60e51b815260040161074891906120b9565b6000306001600160a01b037f00000000000000000000000000000000000000000000000000000000000000001614801561137b57507f000000000000000000000000000000000000000000000000000000000000000046145b156113a557507f000000000000000000000000000000000000000000000000000000000000000090565b50604080517f00000000000000000000000000000000000000000000000000000000000000006020808301919091527f0000000000000000000000000000000000000000000000000000000000000000828401527f000000000000000000000000000000000000000000000000000000000000000060608301524660808301523060a0808401919091528351808403909101815260c0909201909252805191012090565b6000807f7fffffffffffffffffffffffffffffff5d576e7357a4501ddfe92f46681b20a0831115611480575060009050600361152d565b8460ff16601b1415801561149857508460ff16601c14155b156114a9575060009050600461152d565b6040805160008082526020820180845289905260ff881692820192909252606081018690526080810185905260019060a0016020604051602081039080840390855afa1580156114fd573d6000803e3d6000fd5b5050604051601f1901519150506001600160a01b0381166115265760006001925092505061152d565b9150600090505b94509492505050565b600081600481111561154a5761154a612332565b14156115535750565b600181600481111561156757611567612332565b14156115b55760405162461bcd60e51b815260206004820152601860248201527f45434453413a20696e76616c6964207369676e617475726500000000000000006044820152606401610748565b60028160048111156115c9576115c9612332565b14156116175760405162461bcd60e51b815260206004820152601f60248201527f45434453413a20696e76616c6964207369676e6174757265206c656e677468006044820152606401610748565b600381600481111561162b5761162b612332565b14156116845760405162461bcd60e51b815260206004820152602260248201527f45434453413a20696e76616c6964207369676e6174757265202773272076616c604482015261756560f01b6064820152608401610748565b600481600481111561169857611698612332565b14156116f15760405162461bcd60e51b815260206004820152602260248201527f45434453413a20696e76616c6964207369676e6174757265202776272076616c604482015261756560f01b6064820152608401610748565b50565b60008481526002602090815260408083206001600160a01b0387168452600381019092529091205460ff16156117925760405162461bcd60e51b815260206004820152602760248201527f476f7665726e6f72566f74696e6753696d706c653a20766f746520616c72656160448201527f64792063617374000000000000000000000000000000000000000000000000006064820152608401610748565b6001600160a01b03841660009081526003820160205260408120805460ff1916600117905560ff168360ff1614156117e357818160000160008282546117d8919061223b565b90915550610e499050565b60ff83166001141561180357818160010160008282546117d8919061223b565b60ff83166002141561182357818160020160008282546117d8919061223b565b60405162461bcd60e51b815260206004820152603560248201527f476f7665726e6f72566f74696e6753696d706c653a20696e76616c696420766160448201527f6c756520666f7220656e756d20566f74655479706500000000000000000000006064820152608401610748565b6060824710156119095760405162461bcd60e51b815260206004820152602660248201527f416464726573733a20696e73756666696369656e742062616c616e636520666f60448201527f722063616c6c00000000000000000000000000000000000000000000000000006064820152608401610748565b6001600160a01b0385163b6119605760405162461bcd60e51b815260206004820152601d60248201527f416464726573733a2063616c6c20746f206e6f6e2d636f6e74726163740000006044820152606401610748565b600080866001600160a01b0316858760405161197c919061202a565b60006040518083038185875af1925050503d80600081146119b9576040519150601f19603f3d011682016040523d82523d6000602084013e6119be565b606091505b509150915061087b8282866112e9565b600067ffffffffffffffff8311156119e8576119e861235e565b6119fb601f8401601f19166020016121e6565b9050828152838383011115611a0f57600080fd5b828260208301376000602084830101529392505050565b80356001600160a01b0381168114611a3d57600080fd5b919050565b600082601f830112611a5357600080fd5b81356020611a68611a6383612217565b6121e6565b80838252828201915082860187848660051b8901011115611a8857600080fd5b60005b85811015611aae57611a9c82611a26565b84529284019290840190600101611a8b565b5090979650505050505050565b600082601f830112611acc57600080fd5b81356020611adc611a6383612217565b80838252828201915082860187848660051b8901011115611afc57600080fd5b60005b85811015611aae57813567ffffffffffffffff811115611b1e57600080fd5b8801603f81018a13611b2f57600080fd5b611b408a87830135604084016119ce565b8552509284019290840190600101611aff565b600082601f830112611b6457600080fd5b81356020611b74611a6383612217565b80838252828201915082860187848660051b8901011115611b9457600080fd5b60005b85811015611aae57813584529284019290840190600101611b97565b60008083601f840112611bc557600080fd5b50813567ffffffffffffffff811115611bdd57600080fd5b602083019150836020828501011115611bf557600080fd5b9250929050565b803560ff81168114611a3d57600080fd5b60008060408385031215611c2057600080fd5b611c2983611a26565b946020939093013593505050565b60008060008060608587031215611c4d57600080fd5b611c5685611a26565b935060208501359250604085013567ffffffffffffffff811115611c7957600080fd5b611c8587828801611bb3565b95989497509550505050565b60008060008060808587031215611ca757600080fd5b843567ffffffffffffffff80821115611cbf57600080fd5b611ccb88838901611a42565b95506020870135915080821115611ce157600080fd5b611ced88838901611b53565b94506040870135915080821115611d0357600080fd5b50611d1087828801611abb565b949793965093946060013593505050565b60008060008060808587031215611d3757600080fd5b843567ffffffffffffffff80821115611d4f57600080fd5b611d5b88838901611a42565b95506020870135915080821115611d7157600080fd5b611d7d88838901611b53565b94506040870135915080821115611d9357600080fd5b611d9f88838901611abb565b93506060870135915080821115611db557600080fd5b508501601f81018713611dc757600080fd5b611dd6878235602084016119ce565b91505092959194509250565b600060208284031215611df457600080fd5b81357fffffffff0000000000000000000000000000000000000000000000000000000081168114610e9657600080fd5b600060208284031215611e3657600080fd5b5035919050565b600060208284031215611e4f57600080fd5b5051919050565b60008060408385031215611e6957600080fd5b82359150611e7960208401611a26565b90509250929050565b60008060408385031215611e9557600080fd5b82359150611e7960208401611bfc565b60008060008060608587031215611ebb57600080fd5b84359350611ecb60208601611bfc565b9250604085013567ffffffffffffffff811115611c7957600080fd5b600080600080600060a08688031215611eff57600080fd5b85359450611f0f60208701611bfc565b9350611f1d60408701611bfc565b94979396509394606081013594506080013592915050565b600081518084526020808501945080840160005b83811015611f6e5781516001600160a01b031687529582019590820190600101611f49565b509495945050505050565b600081518084526020808501808196508360051b8101915082860160005b85811015611fc1578284038952611faf848351611ffe565b98850198935090840190600101611f97565b5091979650505050505050565b600081518084526020808501945080840160005b83811015611f6e57815187529582019590820190600101611fe2565b60008151808452612016816020860160208601612296565b601f01601f19169290920160200192915050565b6000825161203c818460208701612296565b9190910192915050565b6080815260006120596080830187611f35565b828103602084015261206b8187611fce565b9050828103604084015261207f8186611f79565b91505082606083015295945050505050565b60208101600883106120b357634e487b7160e01b600052602160045260246000fd5b91905290565b602081526000610e966020830184611ffe565b60006101208b835260206001600160a01b038c16818501528160408501526120f68285018c611f35565b9150838203606085015261210a828b611fce565b915083820360808501528189518084528284019150828160051b850101838c0160005b8381101561215b57601f19878403018552612149838351611ffe565b9486019492509085019060010161212d565b505086810360a088015261216f818c611f79565b94505050505061218b60c084018767ffffffffffffffff169052565b67ffffffffffffffff851660e08401528281036101008401526121ae8185611ffe565b9c9b505050505050505050505050565b84815260ff84166020820152826040820152608060608201526000610a036080830184611ffe565b604051601f8201601f1916810167ffffffffffffffff8111828210171561220f5761220f61235e565b604052919050565b600067ffffffffffffffff8211156122315761223161235e565b5060051b60200190565b6000821982111561224e5761224e61231c565b500190565b600067ffffffffffffffff8083168185168083038211156122765761227661231c565b01949350505050565b6000828210156122915761229161231c565b500390565b60005b838110156122b1578181015183820152602001612299565b838111156122c0576000848401525b50505050565b600181811c908216806122da57607f821691505b602082108114156122fb57634e487b7160e01b600052602260045260246000fd5b50919050565b60006000198214156123155761231561231c565b5060010190565b634e487b7160e01b600052601160045260246000fd5b634e487b7160e01b600052602160045260246000fd5b634e487b7160e01b600052603260045260246000fd5b634e487b7160e01b600052604160045260246000fdfe476f7665726e6f723a2063616c6c20726576657274656420776974686f7574206d657373616765416464726573733a206c6f772d6c6576656c2063616c6c20776974682076616c7565206661696c6564a26469706673582212209fdad53ed7e527f6b0cff014db0445b1057327ae8ca20471467b337d3f06347d64736f6c63430008060033",
	"linkReferences": {},
	"deployedLinkReferences": {}
}