{
    "_format": "hh-sol-artifact-1",
    "contractName": "Swapper",
    "sourceName": "contracts/Swapper.sol",
    "abi": [
        {
            "anonymous": false,
            "inputs": [
                {
                    "indexed": false,
                    "internalType": "uint256",
                    "name": "dealId",
                    "type": "uint256"
                },
                {
                    "indexed": false,
                    "internalType": "address",
                    "name": "executor",
                    "type": "address"
                },
                {
                    "indexed": false,
                    "internalType": "address",
                    "name": "proposer1",
                    "type": "address"
                },
                {
                    "indexed": false,
                    "internalType": "address",
                    "name": "proposer2",
                    "type": "address"
                }
            ],
            "name": "DealApproved",
            "type": "event"
        },
        {
            "anonymous": false,
            "inputs": [
                {
                    "indexed": false,
                    "internalType": "uint256",
                    "name": "dealId",
                    "type": "uint256"
                },
                {
                    "indexed": false,
                    "internalType": "address",
                    "name": "executor",
                    "type": "address"
                },
                {
                    "indexed": false,
                    "internalType": "address",
                    "name": "proposer1",
                    "type": "address"
                },
                {
                    "indexed": false,
                    "internalType": "address",
                    "name": "proposer2",
                    "type": "address"
                }
            ],
            "name": "DealCanceled",
            "type": "event"
        },
        {
            "anonymous": false,
            "inputs": [
                {
                    "indexed": false,
                    "internalType": "uint256",
                    "name": "dealId",
                    "type": "uint256"
                },
                {
                    "indexed": false,
                    "internalType": "address",
                    "name": "executor",
                    "type": "address"
                },
                {
                    "indexed": false,
                    "internalType": "address",
                    "name": "proposer1",
                    "type": "address"
                },
                {
                    "indexed": false,
                    "internalType": "address",
                    "name": "proposer2",
                    "type": "address"
                }
            ],
            "name": "DealClaimed",
            "type": "event"
        },
        {
            "anonymous": false,
            "inputs": [
                {
                    "indexed": false,
                    "internalType": "address",
                    "name": "proposer1",
                    "type": "address"
                },
                {
                    "indexed": false,
                    "internalType": "address",
                    "name": "executor1",
                    "type": "address"
                },
                {
                    "indexed": false,
                    "internalType": "address",
                    "name": "token1",
                    "type": "address"
                },
                {
                    "indexed": false,
                    "internalType": "uint256",
                    "name": "amount1",
                    "type": "uint256"
                },
                {
                    "indexed": false,
                    "internalType": "address",
                    "name": "proposer2",
                    "type": "address"
                },
                {
                    "indexed": false,
                    "internalType": "address",
                    "name": "executor2",
                    "type": "address"
                },
                {
                    "indexed": false,
                    "internalType": "address",
                    "name": "token2",
                    "type": "address"
                },
                {
                    "indexed": false,
                    "internalType": "uint256",
                    "name": "amount2",
                    "type": "uint256"
                },
                {
                    "indexed": false,
                    "internalType": "uint256",
                    "name": "startDate",
                    "type": "uint256"
                },
                {
                    "indexed": false,
                    "internalType": "uint256",
                    "name": "vesting",
                    "type": "uint256"
                },
                {
                    "indexed": false,
                    "internalType": "uint256",
                    "name": "deadline",
                    "type": "uint256"
                }
            ],
            "name": "DealCreated",
            "type": "event"
        },
        {
            "inputs": [
                {
                    "internalType": "uint256",
                    "name": "",
                    "type": "uint256"
                }
            ],
            "name": "_deals",
            "outputs": [
                {
                    "internalType": "address",
                    "name": "proposer1",
                    "type": "address"
                },
                {
                    "internalType": "address",
                    "name": "proposer2",
                    "type": "address"
                },
                {
                    "internalType": "address",
                    "name": "account1",
                    "type": "address"
                },
                {
                    "internalType": "address",
                    "name": "account2",
                    "type": "address"
                },
                {
                    "internalType": "address",
                    "name": "token1",
                    "type": "address"
                },
                {
                    "internalType": "address",
                    "name": "token2",
                    "type": "address"
                },
                {
                    "internalType": "uint256",
                    "name": "amount1",
                    "type": "uint256"
                },
                {
                    "internalType": "uint256",
                    "name": "amount2",
                    "type": "uint256"
                },
                {
                    "internalType": "uint256",
                    "name": "startDate",
                    "type": "uint256"
                },
                {
                    "internalType": "uint256",
                    "name": "vesting",
                    "type": "uint256"
                },
                {
                    "internalType": "uint256",
                    "name": "deadline",
                    "type": "uint256"
                },
                {
                    "internalType": "enum ISwapper.Status",
                    "name": "status",
                    "type": "uint8"
                }
            ],
            "stateMutability": "view",
            "type": "function"
        },
        {
            "inputs": [
                {
                    "internalType": "uint256",
                    "name": "id",
                    "type": "uint256"
                }
            ],
            "name": "approve",
            "outputs": [
                {
                    "internalType": "bool",
                    "name": "",
                    "type": "bool"
                }
            ],
            "stateMutability": "nonpayable",
            "type": "function"
        },
        {
            "inputs": [
                {
                    "internalType": "uint256",
                    "name": "id",
                    "type": "uint256"
                }
            ],
            "name": "cancel",
            "outputs": [
                {
                    "internalType": "bool",
                    "name": "",
                    "type": "bool"
                }
            ],
            "stateMutability": "nonpayable",
            "type": "function"
        },
        {
            "inputs": [
                {
                    "internalType": "uint256",
                    "name": "id",
                    "type": "uint256"
                }
            ],
            "name": "claim",
            "outputs": [
                {
                    "internalType": "bool",
                    "name": "",
                    "type": "bool"
                }
            ],
            "stateMutability": "nonpayable",
            "type": "function"
        },
        {
            "inputs": [
                {
                    "internalType": "address",
                    "name": "proposer1",
                    "type": "address"
                },
                {
                    "internalType": "address",
                    "name": "token1",
                    "type": "address"
                },
                {
                    "internalType": "uint256",
                    "name": "amount1",
                    "type": "uint256"
                },
                {
                    "internalType": "address",
                    "name": "proposer2",
                    "type": "address"
                },
                {
                    "internalType": "address",
                    "name": "account2",
                    "type": "address"
                },
                {
                    "internalType": "address",
                    "name": "token2",
                    "type": "address"
                },
                {
                    "internalType": "uint256",
                    "name": "amount2",
                    "type": "uint256"
                },
                {
                    "internalType": "uint256",
                    "name": "vesting",
                    "type": "uint256"
                },
                {
                    "internalType": "uint256",
                    "name": "deadline",
                    "type": "uint256"
                }
            ],
            "name": "propose",
            "outputs": [
                {
                    "internalType": "bool",
                    "name": "",
                    "type": "bool"
                },
                {
                    "internalType": "uint256",
                    "name": "",
                    "type": "uint256"
                }
            ],
            "stateMutability": "nonpayable",
            "type": "function"
        }
    ],
    "bytecode": "0x608060405234801561001057600080fd5b50610df8806100206000396000f3fe608060405234801561001057600080fd5b50600436106100675760003560e01c806340e58ee51161005057806340e58ee514610137578063781f9cf21461014a578063b759f9541461017457600080fd5b806310b4caed1461006c578063379607f514610114575b600080fd5b6100f361007a366004610cbe565b600160208190526000918252604090912080549181015460028201546003830154600484015460058501546006860154600787015460088801546009890154600a8a0154600b909a01546001600160a01b039b8c169b998a169a988a169997881698968816979095169593949293919290919060ff168c565b60405161010b9c9b9a99989796959493929190610cf0565b60405180910390f35b610127610122366004610cbe565b610187565b604051901515815260200161010b565b610127610145366004610cbe565b6103bb565b61015d610158366004610c09565b61065a565b60408051921515835260208301919091520161010b565b610127610182366004610cbe565b6108c4565b60008181526001602052604081206009810154600882015443916101aa91610d86565b11156102235760405162461bcd60e51b815260206004820152602360248201527f537761707065723a2076657374696e6720706572696f64206973206e6f74206f60448201527f766572000000000000000000000000000000000000000000000000000000000060648201526084015b60405180910390fd5b6004818101546003830154600684015460405163a9059cbb60e01b81526001600160a01b03928316948101949094526024840152169063a9059cbb90604401602060405180830381600087803b15801561027c57600080fd5b505af1158015610290573d6000803e3d6000fd5b505050506040513d601f19601f820116820180604052508101906102b49190610c95565b5060058101546002820154600783015460405163a9059cbb60e01b81526001600160a01b039283166004820152602481019190915291169063a9059cbb90604401602060405180830381600087803b15801561030f57600080fd5b505af1158015610323573d6000803e3d6000fd5b505050506040513d601f19601f820116820180604052508101906103479190610c95565b50600b8101805460ff1916600217905580546001820154604080518681523360208201526001600160a01b0393841691810191909152911660608201527f4b0ad059882202bf508221d6486f6f32372bd7e6cb2749615dbc07597f3398a1906080015b60405180910390a150600192915050565b600081815260016020526040812060028101546001600160a01b0316331461044b5760405162461bcd60e51b815260206004820152602860248201527f537761707065723a2063616c6c6572206973206e6f7420746865206465616c2060448201527f70726f706f736572000000000000000000000000000000000000000000000000606482015260840161021a565b6000600b82015460ff16600381111561046657610466610dac565b146104d95760405162461bcd60e51b815260206004820152602260248201527f537761707065723a206465616c206973206e6f206c6f6e6765722070656e646960448201527f6e67000000000000000000000000000000000000000000000000000000000000606482015260840161021a565b4381600a015482600801546104ee9190610d86565b10156105625760405162461bcd60e51b815260206004820152602660248201527f537761707065723a20616363657074616e636520706572696f64206973206e6f60448201527f74206f7665720000000000000000000000000000000000000000000000000000606482015260840161021a565b6004818101546002830154600684015460405163a9059cbb60e01b81526001600160a01b03928316948101949094526024840152169063a9059cbb90604401602060405180830381600087803b1580156105bb57600080fd5b505af11580156105cf573d6000803e3d6000fd5b505050506040513d601f19601f820116820180604052508101906105f39190610c95565b50600b8101805460ff1916600317905580546001820154604080518681523360208201526001600160a01b0393841691810191909152911660608201527f17bd80eba42ad072a18eb5995ff3ef08afedea4dfe22fdd186c0c7ada3a3d3a3906080016103aa565b600080610668338b8b6109b7565b6000805490506040518061018001604052808d6001600160a01b031681526020018a6001600160a01b03168152602001336001600160a01b03168152602001896001600160a01b031681526020018c6001600160a01b03168152602001886001600160a01b031681526020018b81526020018781526020014381526020018681526020018581526020016000600381111561070557610705610dac565b9052600082815260016020818152604092839020845181547fffffffffffffffffffffffff00000000000000000000000000000000000000009081166001600160a01b0392831617835592860151828501805485169183169190911790559385015160028201805484169186169190911790556060850151600380830180548516928716929092179091556080860151600483018054851691871691909117905560a086015160058301805490941695169490941790915560c0840151600682015560e0840151600782015561010084015160088201556101208401516009820155610140840151600a820155610160840151600b8201805492949193909260ff191691849081111561081a5761081a610dac565b02179055505060008054600101905550604080516001600160a01b038e811682523360208301528d811682840152606082018d90528b811660808301528a811660a0830152891660c082015260e08101889052436101008201526101208101879052610140810186905290517f1b21afb2560eccdb2c730979491bdac6d314cfc809d4bab3685b66163f374d73918190036101600190a160019c909b509950505050505050505050565b600081815260016020526040812060038101546001600160a01b0316331461092e5760405162461bcd60e51b815260206004820152601b60248201527f537761707065723a2063616c6c6572206e6f7420616c6c6f7765640000000000604482015260640161021a565b6005810154600782015461094f9133916001600160a01b03909116906109b7565b600b8101805460ff19166001908117909155815490820154604080518681523360208201526001600160a01b0393841691810191909152911660608201527f146590640df693bb509a0a01100fe0071e0b85e3ef43c1df6546bae68ec80040906080016103aa565b6040517fdd62ed3e0000000000000000000000000000000000000000000000000000000081526001600160a01b0384811660048301523060248301526000919084169063dd62ed3e9060440160206040518083038186803b158015610a1b57600080fd5b505afa158015610a2f573d6000803e3d6000fd5b505050506040513d601f19601f82011682018060405250810190610a539190610cd7565b905081811015610aa55760405162461bcd60e51b815260206004820152601860248201527f537761707065723a206e6565647320616c6c6f77616e63650000000000000000604482015260640161021a565b6040517f23b872dd0000000000000000000000000000000000000000000000000000000081526001600160a01b03858116600483015230602483015260448201849052600091908516906323b872dd90606401602060405180830381600087803b158015610b1257600080fd5b505af1158015610b26573d6000803e3d6000fd5b505050506040513d601f19601f82011682018060405250810190610b4a9190610c95565b905080610bbf5760405162461bcd60e51b815260206004820152602260248201527f537761707065723a20746f6b656e207472616e7366657220686173206661696c60448201527f6564000000000000000000000000000000000000000000000000000000000000606482015260840161021a565b50506001600160a01b0392831660009081526002602090815260408083209490951682529290925291902055565b80356001600160a01b0381168114610c0457600080fd5b919050565b60008060008060008060008060006101208a8c031215610c2857600080fd5b610c318a610bed565b9850610c3f60208b01610bed565b975060408a01359650610c5460608b01610bed565b9550610c6260808b01610bed565b9450610c7060a08b01610bed565b935060c08a0135925060e08a013591506101008a013590509295985092959850929598565b600060208284031215610ca757600080fd5b81518015158114610cb757600080fd5b9392505050565b600060208284031215610cd057600080fd5b5035919050565b600060208284031215610ce957600080fd5b5051919050565b6000610180820190506001600160a01b03808f168352808e166020840152808d166040840152808c166060840152808b166080840152808a1660a0840152508760c08301528660e083015285610100830152846101208301528361014083015260048310610d6e57634e487b7160e01b600052602160045260246000fd5b826101608301529d9c50505050505050505050505050565b60008219821115610da757634e487b7160e01b600052601160045260246000fd5b500190565b634e487b7160e01b600052602160045260246000fdfea2646970667358221220b815223e3bc87a0e2d04a97616487f0bfadac18d7ca2438df6749f37527e36be64736f6c63430008060033",
    "linkReferences": {},
    "deployedLinkReferences": {}
}