{
    "_format": "hh-sol-artifact-1",
    "contractName": "TokenA",
    "sourceName": "contracts/TokenA.sol",
    "abi": [
        {
            "inputs": [],
            "stateMutability": "nonpayable",
            "type": "constructor"
        },
        {
            "anonymous": false,
            "inputs": [
                {
                    "indexed": true,
                    "internalType": "address",
                    "name": "owner",
                    "type": "address"
                },
                {
                    "indexed": true,
                    "internalType": "address",
                    "name": "spender",
                    "type": "address"
                },
                {
                    "indexed": false,
                    "internalType": "uint256",
                    "name": "value",
                    "type": "uint256"
                }
            ],
            "name": "Approval",
            "type": "event"
        },
        {
            "anonymous": false,
            "inputs": [
                {
                    "indexed": true,
                    "internalType": "address",
                    "name": "delegator",
                    "type": "address"
                },
                {
                    "indexed": true,
                    "internalType": "address",
                    "name": "fromDelegate",
                    "type": "address"
                },
                {
                    "indexed": true,
                    "internalType": "address",
                    "name": "toDelegate",
                    "type": "address"
                }
            ],
            "name": "DelegateChanged",
            "type": "event"
        },
        {
            "anonymous": false,
            "inputs": [
                {
                    "indexed": true,
                    "internalType": "address",
                    "name": "delegate",
                    "type": "address"
                },
                {
                    "indexed": false,
                    "internalType": "uint256",
                    "name": "previousBalance",
                    "type": "uint256"
                },
                {
                    "indexed": false,
                    "internalType": "uint256",
                    "name": "newBalance",
                    "type": "uint256"
                }
            ],
            "name": "DelegateVotesChanged",
            "type": "event"
        },
        {
            "anonymous": false,
            "inputs": [
                {
                    "indexed": true,
                    "internalType": "address",
                    "name": "previousOwner",
                    "type": "address"
                },
                {
                    "indexed": true,
                    "internalType": "address",
                    "name": "newOwner",
                    "type": "address"
                }
            ],
            "name": "OwnershipTransferred",
            "type": "event"
        },
        {
            "anonymous": false,
            "inputs": [
                {
                    "indexed": true,
                    "internalType": "address",
                    "name": "from",
                    "type": "address"
                },
                {
                    "indexed": true,
                    "internalType": "address",
                    "name": "to",
                    "type": "address"
                },
                {
                    "indexed": false,
                    "internalType": "uint256",
                    "name": "value",
                    "type": "uint256"
                }
            ],
            "name": "Transfer",
            "type": "event"
        },
        {
            "inputs": [],
            "name": "DOMAIN_SEPARATOR",
            "outputs": [
                {
                    "internalType": "bytes32",
                    "name": "",
                    "type": "bytes32"
                }
            ],
            "stateMutability": "view",
            "type": "function"
        },
        {
            "inputs": [
                {
                    "internalType": "address",
                    "name": "owner",
                    "type": "address"
                },
                {
                    "internalType": "address",
                    "name": "spender",
                    "type": "address"
                }
            ],
            "name": "allowance",
            "outputs": [
                {
                    "internalType": "uint256",
                    "name": "",
                    "type": "uint256"
                }
            ],
            "stateMutability": "view",
            "type": "function"
        },
        {
            "inputs": [
                {
                    "internalType": "address",
                    "name": "spender",
                    "type": "address"
                },
                {
                    "internalType": "uint256",
                    "name": "amount",
                    "type": "uint256"
                }
            ],
            "name": "approve",
            "outputs": [
                {
                    "internalType": "bool",
                    "name": "",
                    "type": "bool"
                }
            ],
            "stateMutability": "nonpayable",
            "type": "function"
        },
        {
            "inputs": [
                {
                    "internalType": "address",
                    "name": "account",
                    "type": "address"
                }
            ],
            "name": "balanceOf",
            "outputs": [
                {
                    "internalType": "uint256",
                    "name": "",
                    "type": "uint256"
                }
            ],
            "stateMutability": "view",
            "type": "function"
        },
        {
            "inputs": [
                {
                    "internalType": "address",
                    "name": "account",
                    "type": "address"
                },
                {
                    "internalType": "uint32",
                    "name": "pos",
                    "type": "uint32"
                }
            ],
            "name": "checkpoints",
            "outputs": [
                {
                    "components": [
                        {
                            "internalType": "uint32",
                            "name": "fromBlock",
                            "type": "uint32"
                        },
                        {
                            "internalType": "uint224",
                            "name": "votes",
                            "type": "uint224"
                        }
                    ],
                    "internalType": "struct ERC20Votes.Checkpoint",
                    "name": "",
                    "type": "tuple"
                }
            ],
            "stateMutability": "view",
            "type": "function"
        },
        {
            "inputs": [],
            "name": "decimals",
            "outputs": [
                {
                    "internalType": "uint8",
                    "name": "",
                    "type": "uint8"
                }
            ],
            "stateMutability": "view",
            "type": "function"
        },
        {
            "inputs": [
                {
                    "internalType": "address",
                    "name": "spender",
                    "type": "address"
                },
                {
                    "internalType": "uint256",
                    "name": "subtractedValue",
                    "type": "uint256"
                }
            ],
            "name": "decreaseAllowance",
            "outputs": [
                {
                    "internalType": "bool",
                    "name": "",
                    "type": "bool"
                }
            ],
            "stateMutability": "nonpayable",
            "type": "function"
        },
        {
            "inputs": [
                {
                    "internalType": "address",
                    "name": "delegatee",
                    "type": "address"
                }
            ],
            "name": "delegate",
            "outputs": [],
            "stateMutability": "nonpayable",
            "type": "function"
        },
        {
            "inputs": [
                {
                    "internalType": "address",
                    "name": "delegatee",
                    "type": "address"
                },
                {
                    "internalType": "uint256",
                    "name": "nonce",
                    "type": "uint256"
                },
                {
                    "internalType": "uint256",
                    "name": "expiry",
                    "type": "uint256"
                },
                {
                    "internalType": "uint8",
                    "name": "v",
                    "type": "uint8"
                },
                {
                    "internalType": "bytes32",
                    "name": "r",
                    "type": "bytes32"
                },
                {
                    "internalType": "bytes32",
                    "name": "s",
                    "type": "bytes32"
                }
            ],
            "name": "delegateBySig",
            "outputs": [],
            "stateMutability": "nonpayable",
            "type": "function"
        },
        {
            "inputs": [
                {
                    "internalType": "address",
                    "name": "account",
                    "type": "address"
                }
            ],
            "name": "delegates",
            "outputs": [
                {
                    "internalType": "address",
                    "name": "",
                    "type": "address"
                }
            ],
            "stateMutability": "view",
            "type": "function"
        },
        {
            "inputs": [
                {
                    "internalType": "uint256",
                    "name": "blockNumber",
                    "type": "uint256"
                }
            ],
            "name": "getPastTotalSupply",
            "outputs": [
                {
                    "internalType": "uint256",
                    "name": "",
                    "type": "uint256"
                }
            ],
            "stateMutability": "view",
            "type": "function"
        },
        {
            "inputs": [
                {
                    "internalType": "address",
                    "name": "account",
                    "type": "address"
                },
                {
                    "internalType": "uint256",
                    "name": "blockNumber",
                    "type": "uint256"
                }
            ],
            "name": "getPastVotes",
            "outputs": [
                {
                    "internalType": "uint256",
                    "name": "",
                    "type": "uint256"
                }
            ],
            "stateMutability": "view",
            "type": "function"
        },
        {
            "inputs": [
                {
                    "internalType": "address",
                    "name": "account",
                    "type": "address"
                }
            ],
            "name": "getVotes",
            "outputs": [
                {
                    "internalType": "uint256",
                    "name": "",
                    "type": "uint256"
                }
            ],
            "stateMutability": "view",
            "type": "function"
        },
        {
            "inputs": [
                {
                    "internalType": "address",
                    "name": "spender",
                    "type": "address"
                },
                {
                    "internalType": "uint256",
                    "name": "addedValue",
                    "type": "uint256"
                }
            ],
            "name": "increaseAllowance",
            "outputs": [
                {
                    "internalType": "bool",
                    "name": "",
                    "type": "bool"
                }
            ],
            "stateMutability": "nonpayable",
            "type": "function"
        },
        {
            "inputs": [
                {
                    "internalType": "address",
                    "name": "to",
                    "type": "address"
                },
                {
                    "internalType": "uint256",
                    "name": "amount",
                    "type": "uint256"
                }
            ],
            "name": "mint",
            "outputs": [],
            "stateMutability": "nonpayable",
            "type": "function"
        },
        {
            "inputs": [],
            "name": "name",
            "outputs": [
                {
                    "internalType": "string",
                    "name": "",
                    "type": "string"
                }
            ],
            "stateMutability": "view",
            "type": "function"
        },
        {
            "inputs": [
                {
                    "internalType": "address",
                    "name": "owner",
                    "type": "address"
                }
            ],
            "name": "nonces",
            "outputs": [
                {
                    "internalType": "uint256",
                    "name": "",
                    "type": "uint256"
                }
            ],
            "stateMutability": "view",
            "type": "function"
        },
        {
            "inputs": [
                {
                    "internalType": "address",
                    "name": "account",
                    "type": "address"
                }
            ],
            "name": "numCheckpoints",
            "outputs": [
                {
                    "internalType": "uint32",
                    "name": "",
                    "type": "uint32"
                }
            ],
            "stateMutability": "view",
            "type": "function"
        },
        {
            "inputs": [],
            "name": "owner",
            "outputs": [
                {
                    "internalType": "address",
                    "name": "",
                    "type": "address"
                }
            ],
            "stateMutability": "view",
            "type": "function"
        },
        {
            "inputs": [
                {
                    "internalType": "address",
                    "name": "owner",
                    "type": "address"
                },
                {
                    "internalType": "address",
                    "name": "spender",
                    "type": "address"
                },
                {
                    "internalType": "uint256",
                    "name": "value",
                    "type": "uint256"
                },
                {
                    "internalType": "uint256",
                    "name": "deadline",
                    "type": "uint256"
                },
                {
                    "internalType": "uint8",
                    "name": "v",
                    "type": "uint8"
                },
                {
                    "internalType": "bytes32",
                    "name": "r",
                    "type": "bytes32"
                },
                {
                    "internalType": "bytes32",
                    "name": "s",
                    "type": "bytes32"
                }
            ],
            "name": "permit",
            "outputs": [],
            "stateMutability": "nonpayable",
            "type": "function"
        },
        {
            "inputs": [],
            "name": "renounceOwnership",
            "outputs": [],
            "stateMutability": "nonpayable",
            "type": "function"
        },
        {
            "inputs": [],
            "name": "symbol",
            "outputs": [
                {
                    "internalType": "string",
                    "name": "",
                    "type": "string"
                }
            ],
            "stateMutability": "view",
            "type": "function"
        },
        {
            "inputs": [],
            "name": "totalSupply",
            "outputs": [
                {
                    "internalType": "uint256",
                    "name": "",
                    "type": "uint256"
                }
            ],
            "stateMutability": "view",
            "type": "function"
        },
        {
            "inputs": [
                {
                    "internalType": "address",
                    "name": "to",
                    "type": "address"
                },
                {
                    "internalType": "uint256",
                    "name": "amount",
                    "type": "uint256"
                }
            ],
            "name": "transfer",
            "outputs": [
                {
                    "internalType": "bool",
                    "name": "",
                    "type": "bool"
                }
            ],
            "stateMutability": "nonpayable",
            "type": "function"
        },
        {
            "inputs": [
                {
                    "internalType": "address",
                    "name": "from",
                    "type": "address"
                },
                {
                    "internalType": "address",
                    "name": "to",
                    "type": "address"
                },
                {
                    "internalType": "uint256",
                    "name": "amount",
                    "type": "uint256"
                }
            ],
            "name": "transferFrom",
            "outputs": [
                {
                    "internalType": "bool",
                    "name": "",
                    "type": "bool"
                }
            ],
            "stateMutability": "nonpayable",
            "type": "function"
        },
        {
            "inputs": [
                {
                    "internalType": "address",
                    "name": "newOwner",
                    "type": "address"
                }
            ],
            "name": "transferOwnership",
            "outputs": [],
            "stateMutability": "nonpayable",
            "type": "function"
        }
    ],
    "bytecode": "0x6101606040527f6e71edae12b1b97f4d1f60370fef10105fa2faae0126114a169c64845d6126c9610140523480156200003757600080fd5b5060405180604001604052806006815260200165546f6b656e4160d01b81525080604051806040016040528060018152602001603160f81b81525060405180604001604052806006815260200165546f6b656e4160d01b81525060405180604001604052806003815260200162544b4160e81b8152508160039080519060200190620000c5929190620001ea565b508051620000db906004906020840190620001ea565b505050620000f8620000f26200019460201b60201c565b62000198565b815160208084019190912082518383012060e08290526101008190524660a0818152604080517f8b73c3c69bb8fe3d512ecc4cf759cc79239f7b179b0ffacaa9a75d522b39400f81880181905281830187905260608201869052608082019490945230818401528151808203909301835260c00190528051940193909320919290916080523060601b60c0526101205250620002cd9350505050565b3390565b600580546001600160a01b038381166001600160a01b0319831681179093556040519116919082907f8be0079c531659141344cd1fd0a4f28419497f9722a3daafe3b4186f6b6457e090600090a35050565b828054620001f89062000290565b90600052602060002090601f0160209004810192826200021c576000855562000267565b82601f106200023757805160ff191683800117855562000267565b8280016001018555821562000267579182015b82811115620002675782518255916020019190600101906200024a565b506200027592915062000279565b5090565b5b808211156200027557600081556001016200027a565b600181811c90821680620002a557607f821691505b60208210811415620002c757634e487b7160e01b600052602260045260246000fd5b50919050565b60805160a05160c05160601c60e051610100516101205161014051611fd76200032b6000396000610a32015260006111360152600061118501526000611160015260006110b9015260006110e30152600061110d0152611fd76000f3fe608060405234801561001057600080fd5b50600436106101ae5760003560e01c8063715018a6116100ee578063a457c2d711610097578063d505accf11610071578063d505accf146103a6578063dd62ed3e146103b9578063f1127ed8146103f2578063f2fde38b1461042f57600080fd5b8063a457c2d71461036d578063a9059cbb14610380578063c3cda5201461039357600080fd5b80638e539e8c116100c85780638e539e8c1461033f57806395d89b41146103525780639ab24eb01461035a57600080fd5b8063715018a6146103135780637ecebe001461031b5780638da5cb5b1461032e57600080fd5b8063395093511161015b578063587cde1e11610135578063587cde1e1461026b5780635c19a95c146102af5780636fcfff45146102c257806370a08231146102ea57600080fd5b806339509351146102305780633a46b1a81461024357806340c10f191461025657600080fd5b806323b872dd1161018c57806323b872dd14610206578063313ce567146102195780633644e5151461022857600080fd5b806306fdde03146101b3578063095ea7b3146101d157806318160ddd146101f4575b600080fd5b6101bb610442565b6040516101c89190611e84565b60405180910390f35b6101e46101df366004611da9565b6104d4565b60405190151581526020016101c8565b6002545b6040519081526020016101c8565b6101e4610214366004611d03565b6104ec565b604051601281526020016101c8565b6101f8610510565b6101e461023e366004611da9565b61051f565b6101f8610251366004611da9565b61055e565b610269610264366004611da9565b6105dd565b005b610297610279366004611cb5565b6001600160a01b039081166000908152600760205260409020541690565b6040516001600160a01b0390911681526020016101c8565b6102696102bd366004611cb5565b610645565b6102d56102d0366004611cb5565b610652565b60405163ffffffff90911681526020016101c8565b6101f86102f8366004611cb5565b6001600160a01b031660009081526020819052604090205490565b61026961067a565b6101f8610329366004611cb5565b6106e0565b6005546001600160a01b0316610297565b6101f861034d366004611e6b565b6106fe565b6101bb61075a565b6101f8610368366004611cb5565b610769565b6101e461037b366004611da9565b6107f0565b6101e461038e366004611da9565b61089a565b6102696103a1366004611dd3565b6108a8565b6102696103b4366004611d3f565b6109de565b6101f86103c7366004611cd0565b6001600160a01b03918216600090815260016020908152604080832093909416825291909152205490565b610405610400366004611e2b565b610b42565b60408051825163ffffffff1681526020928301516001600160e01b031692810192909252016101c8565b61026961043d366004611cb5565b610bc6565b60606003805461045190611f2a565b80601f016020809104026020016040519081016040528092919081815260200182805461047d90611f2a565b80156104ca5780601f1061049f576101008083540402835291602001916104ca565b820191906000526020600020905b8154815290600101906020018083116104ad57829003601f168201915b5050505050905090565b6000336104e2818585610ca5565b5060019392505050565b6000336104fa858285610dfd565b610505858585610e8f565b506001949350505050565b600061051a6110ac565b905090565b3360008181526001602090815260408083206001600160a01b03871684529091528120549091906104e29082908690610559908790611ed9565b610ca5565b60004382106105b45760405162461bcd60e51b815260206004820152601f60248201527f4552433230566f7465733a20626c6f636b206e6f7420796574206d696e65640060448201526064015b60405180910390fd5b6001600160a01b03831660009081526008602052604090206105d690836111d3565b9392505050565b6005546001600160a01b031633146106375760405162461bcd60e51b815260206004820181905260248201527f4f776e61626c653a2063616c6c6572206973206e6f7420746865206f776e657260448201526064016105ab565b6106418282611290565b5050565b61064f338261129a565b50565b6001600160a01b03811660009081526008602052604081205461067490611320565b92915050565b6005546001600160a01b031633146106d45760405162461bcd60e51b815260206004820181905260248201527f4f776e61626c653a2063616c6c6572206973206e6f7420746865206f776e657260448201526064016105ab565b6106de60006113a0565b565b6001600160a01b038116600090815260066020526040812054610674565b600043821061074f5760405162461bcd60e51b815260206004820152601f60248201527f4552433230566f7465733a20626c6f636b206e6f7420796574206d696e65640060448201526064016105ab565b6106746009836111d3565b60606004805461045190611f2a565b6001600160a01b03811660009081526008602052604081205480156107dd576001600160a01b03831660009081526008602052604090206107ab600183611f13565b815481106107bb576107bb611f8b565b60009182526020909120015464010000000090046001600160e01b03166107e0565b60005b6001600160e01b03169392505050565b3360008181526001602090815260408083206001600160a01b03871684529091528120549091908381101561088d5760405162461bcd60e51b815260206004820152602560248201527f45524332303a2064656372656173656420616c6c6f77616e63652062656c6f7760448201527f207a65726f00000000000000000000000000000000000000000000000000000060648201526084016105ab565b6105058286868403610ca5565b6000336104e2818585610e8f565b834211156108f85760405162461bcd60e51b815260206004820152601d60248201527f4552433230566f7465733a207369676e6174757265206578706972656400000060448201526064016105ab565b604080517fe48329057bfd03d55e49b547132e39cffd9c1820ad7b9d4c5307691425d15adf60208201526001600160a01b0388169181019190915260608101869052608081018590526000906109729061096a9060a001604051602081830303815290604052805190602001206113ff565b858585611468565b905061097d81611490565b86146109cb5760405162461bcd60e51b815260206004820152601960248201527f4552433230566f7465733a20696e76616c6964206e6f6e63650000000000000060448201526064016105ab565b6109d5818861129a565b50505050505050565b83421115610a2e5760405162461bcd60e51b815260206004820152601d60248201527f45524332305065726d69743a206578706972656420646561646c696e6500000060448201526064016105ab565b60007f0000000000000000000000000000000000000000000000000000000000000000888888610a5d8c611490565b6040805160208101969096526001600160a01b0394851690860152929091166060840152608083015260a082015260c0810186905260e0016040516020818303038152906040528051906020012090506000610ab8826113ff565b90506000610ac882878787611468565b9050896001600160a01b0316816001600160a01b031614610b2b5760405162461bcd60e51b815260206004820152601e60248201527f45524332305065726d69743a20696e76616c6964207369676e6174757265000060448201526064016105ab565b610b368a8a8a610ca5565b50505050505050505050565b60408051808201909152600080825260208201526001600160a01b0383166000908152600860205260409020805463ffffffff8416908110610b8657610b86611f8b565b60009182526020918290206040805180820190915291015463ffffffff8116825264010000000090046001600160e01b0316918101919091529392505050565b6005546001600160a01b03163314610c205760405162461bcd60e51b815260206004820181905260248201527f4f776e61626c653a2063616c6c6572206973206e6f7420746865206f776e657260448201526064016105ab565b6001600160a01b038116610c9c5760405162461bcd60e51b815260206004820152602660248201527f4f776e61626c653a206e6577206f776e657220697320746865207a65726f206160448201527f646472657373000000000000000000000000000000000000000000000000000060648201526084016105ab565b61064f816113a0565b6001600160a01b038316610d205760405162461bcd60e51b8152602060048201526024808201527f45524332303a20617070726f76652066726f6d20746865207a65726f2061646460448201527f726573730000000000000000000000000000000000000000000000000000000060648201526084016105ab565b6001600160a01b038216610d9c5760405162461bcd60e51b815260206004820152602260248201527f45524332303a20617070726f766520746f20746865207a65726f20616464726560448201527f737300000000000000000000000000000000000000000000000000000000000060648201526084016105ab565b6001600160a01b0383811660008181526001602090815260408083209487168084529482529182902085905590518481527f8c5be1e5ebec7d5bd14f71427d1e84f3dd0314c0f7b2291e5b200ac8c7c3b925910160405180910390a3505050565b6001600160a01b038381166000908152600160209081526040808320938616835292905220546000198114610e895781811015610e7c5760405162461bcd60e51b815260206004820152601d60248201527f45524332303a20696e73756666696369656e7420616c6c6f77616e636500000060448201526064016105ab565b610e898484848403610ca5565b50505050565b6001600160a01b038316610f0b5760405162461bcd60e51b815260206004820152602560248201527f45524332303a207472616e736665722066726f6d20746865207a65726f20616460448201527f647265737300000000000000000000000000000000000000000000000000000060648201526084016105ab565b6001600160a01b038216610f875760405162461bcd60e51b815260206004820152602360248201527f45524332303a207472616e7366657220746f20746865207a65726f206164647260448201527f657373000000000000000000000000000000000000000000000000000000000060648201526084016105ab565b6001600160a01b038316600090815260208190526040902054818110156110165760405162461bcd60e51b815260206004820152602660248201527f45524332303a207472616e7366657220616d6f756e742065786365656473206260448201527f616c616e6365000000000000000000000000000000000000000000000000000060648201526084016105ab565b6001600160a01b0380851660009081526020819052604080822085850390559185168152908120805484929061104d908490611ed9565b92505081905550826001600160a01b0316846001600160a01b03167fddf252ad1be2c89b69c2b068fc378daa952ba7f163c4a11628f55a4df523b3ef8460405161109991815260200190565b60405180910390a3610e898484846114bd565b6000306001600160a01b037f00000000000000000000000000000000000000000000000000000000000000001614801561110557507f000000000000000000000000000000000000000000000000000000000000000046145b1561112f57507f000000000000000000000000000000000000000000000000000000000000000090565b50604080517f00000000000000000000000000000000000000000000000000000000000000006020808301919091527f0000000000000000000000000000000000000000000000000000000000000000828401527f000000000000000000000000000000000000000000000000000000000000000060608301524660808301523060a0808401919091528351808403909101815260c0909201909252805191012090565b8154600090815b818110156112375760006111ee82846114c8565b90508486828154811061120357611203611f8b565b60009182526020909120015463ffffffff16111561122357809250611231565b61122e816001611ed9565b91505b506111da565b811561127b5784611249600184611f13565b8154811061125957611259611f8b565b60009182526020909120015464010000000090046001600160e01b031661127e565b60005b6001600160e01b031695945050505050565b61064182826114e3565b6001600160a01b0382811660008181526007602081815260408084208054858452828620549490935287871673ffffffffffffffffffffffffffffffffffffffff198416811790915590519190951694919391928592917f3134e8a2e6d97e929a7e54011ea5485d7d196dd5f0ba4d4ef95803e8e3fc257f9190a4610e8982848361157a565b600063ffffffff82111561139c5760405162461bcd60e51b815260206004820152602660248201527f53616665436173743a2076616c756520646f65736e27742066697420696e203360448201527f322062697473000000000000000000000000000000000000000000000000000060648201526084016105ab565b5090565b600580546001600160a01b0383811673ffffffffffffffffffffffffffffffffffffffff19831681179093556040519116919082907f8be0079c531659141344cd1fd0a4f28419497f9722a3daafe3b4186f6b6457e090600090a35050565b600061067461140c6110ac565b836040517f19010000000000000000000000000000000000000000000000000000000000006020820152602281018390526042810182905260009060620160405160208183030381529060405280519060200120905092915050565b6000806000611479878787876116b7565b91509150611486816117a4565b5095945050505050565b6001600160a01b03811660009081526006602052604090208054600181018255905b50919050565b505050565b6114b883838361195f565b60006114d76002848418611ef1565b6105d690848416611ed9565b6114ed8282611991565b6002546001600160e01b03101561156c5760405162461bcd60e51b815260206004820152603060248201527f4552433230566f7465733a20746f74616c20737570706c79207269736b73206f60448201527f766572666c6f77696e6720766f7465730000000000000000000000000000000060648201526084016105ab565b610e896009611a7883611a84565b816001600160a01b0316836001600160a01b03161415801561159c5750600081115b156114b8576001600160a01b0383161561162a576001600160a01b038316600090815260086020526040812081906115d790611bfd85611a84565b91509150846001600160a01b03167fdec2bacdd2f05b59de34da9b523dff8be42e5e38e818c82fdb0bae774387a724838360405161161f929190918252602082015260400190565b60405180910390a250505b6001600160a01b038216156114b8576001600160a01b0382166000908152600860205260408120819061166090611a7885611a84565b91509150836001600160a01b03167fdec2bacdd2f05b59de34da9b523dff8be42e5e38e818c82fdb0bae774387a72483836040516116a8929190918252602082015260400190565b60405180910390a25050505050565b6000807f7fffffffffffffffffffffffffffffff5d576e7357a4501ddfe92f46681b20a08311156116ee575060009050600361179b565b8460ff16601b1415801561170657508460ff16601c14155b15611717575060009050600461179b565b6040805160008082526020820180845289905260ff881692820192909252606081018690526080810185905260019060a0016020604051602081039080840390855afa15801561176b573d6000803e3d6000fd5b5050604051601f1901519150506001600160a01b0381166117945760006001925092505061179b565b9150600090505b94509492505050565b60008160048111156117b8576117b8611f75565b14156117c15750565b60018160048111156117d5576117d5611f75565b14156118235760405162461bcd60e51b815260206004820152601860248201527f45434453413a20696e76616c6964207369676e6174757265000000000000000060448201526064016105ab565b600281600481111561183757611837611f75565b14156118855760405162461bcd60e51b815260206004820152601f60248201527f45434453413a20696e76616c6964207369676e6174757265206c656e6774680060448201526064016105ab565b600381600481111561189957611899611f75565b14156118f25760405162461bcd60e51b815260206004820152602260248201527f45434453413a20696e76616c6964207369676e6174757265202773272076616c604482015261756560f01b60648201526084016105ab565b600481600481111561190657611906611f75565b141561064f5760405162461bcd60e51b815260206004820152602260248201527f45434453413a20696e76616c6964207369676e6174757265202776272076616c604482015261756560f01b60648201526084016105ab565b6001600160a01b038381166000908152600760205260408082205485841683529120546114b89291821691168361157a565b6001600160a01b0382166119e75760405162461bcd60e51b815260206004820152601f60248201527f45524332303a206d696e7420746f20746865207a65726f20616464726573730060448201526064016105ab565b80600260008282546119f99190611ed9565b90915550506001600160a01b03821660009081526020819052604081208054839290611a26908490611ed9565b90915550506040518181526001600160a01b038316906000907fddf252ad1be2c89b69c2b068fc378daa952ba7f163c4a11628f55a4df523b3ef9060200160405180910390a3610641600083836114bd565b60006105d68284611ed9565b825460009081908015611acf5785611a9d600183611f13565b81548110611aad57611aad611f8b565b60009182526020909120015464010000000090046001600160e01b0316611ad2565b60005b6001600160e01b03169250611aeb83858763ffffffff16565b9150600081118015611b2957504386611b05600184611f13565b81548110611b1557611b15611f8b565b60009182526020909120015463ffffffff16145b15611b8957611b3782611c09565b86611b43600184611f13565b81548110611b5357611b53611f8b565b9060005260206000200160000160046101000a8154816001600160e01b0302191690836001600160e01b03160217905550611bf4565b856040518060400160405280611b9e43611320565b63ffffffff168152602001611bb285611c09565b6001600160e01b0390811690915282546001810184556000938452602093849020835194909301519091166401000000000263ffffffff909316929092179101555b50935093915050565b60006105d68284611f13565b60006001600160e01b0382111561139c5760405162461bcd60e51b815260206004820152602760248201527f53616665436173743a2076616c756520646f65736e27742066697420696e203260448201527f323420626974730000000000000000000000000000000000000000000000000060648201526084016105ab565b80356001600160a01b0381168114611c9f57600080fd5b919050565b803560ff81168114611c9f57600080fd5b600060208284031215611cc757600080fd5b6105d682611c88565b60008060408385031215611ce357600080fd5b611cec83611c88565b9150611cfa60208401611c88565b90509250929050565b600080600060608486031215611d1857600080fd5b611d2184611c88565b9250611d2f60208501611c88565b9150604084013590509250925092565b600080600080600080600060e0888a031215611d5a57600080fd5b611d6388611c88565b9650611d7160208901611c88565b95506040880135945060608801359350611d8d60808901611ca4565b925060a0880135915060c0880135905092959891949750929550565b60008060408385031215611dbc57600080fd5b611dc583611c88565b946020939093013593505050565b60008060008060008060c08789031215611dec57600080fd5b611df587611c88565b95506020870135945060408701359350611e1160608801611ca4565b92506080870135915060a087013590509295509295509295565b60008060408385031215611e3e57600080fd5b611e4783611c88565b9150602083013563ffffffff81168114611e6057600080fd5b809150509250929050565b600060208284031215611e7d57600080fd5b5035919050565b600060208083528351808285015260005b81811015611eb157858101830151858201604001528201611e95565b81811115611ec3576000604083870101525b50601f01601f1916929092016040019392505050565b60008219821115611eec57611eec611f5f565b500190565b600082611f0e57634e487b7160e01b600052601260045260246000fd5b500490565b600082821015611f2557611f25611f5f565b500390565b600181811c90821680611f3e57607f821691505b602082108114156114b257634e487b7160e01b600052602260045260246000fd5b634e487b7160e01b600052601160045260246000fd5b634e487b7160e01b600052602160045260246000fd5b634e487b7160e01b600052603260045260246000fdfea2646970667358221220a5b9d56eea85693be10987298cd2fd8763fdb5b7816369f757f2f6c63dc891ca64736f6c63430008060033",
    "linkReferences": {},
    "deployedLinkReferences": {}
}